:020000040800F2
:100000000050002079570008CD200008E9200008A2
:10001000EF200008F1200008F32000080000000095
:10002000000000000000000000000000F5200008B3
:10003000F720000800000000F9200008FB2000085D
:10004000B9570008B9570008B9570008B957000850
:10005000B9570008B9570008B9570008B957000840
:10006000B9570008B9570008B9570008B957000830
:10007000B9570008B9570008B9570008B957000820
:10008000B9570008B9570008B9570008B957000810
:10009000B9570008B9570008B9570008B957000800
:1000A000B9570008B9570008B9570008B9570008F0
:1000B000B9570008B9570008B9570008B9570008E0
:1000C000B9570008B9570008CF200008B9570008F1
:1000D000B9570008B9570008B9570008B9570008C0
:1000E000B9570008B9570008B9570008B9570008B0
:1000F000B9570008B9570008B9570008B9570008A0
:10010000B9570008EB200008B9570008B957000894
:10011000B9570008B9570008B9570008B95700087F
:10012000B9570008B9570008B9570008B95700086F
:1001300000000000000000000000000000000000BF
:1001400000000000000000000000000000000000AF
:10015000000000000000000000000000000000009F
:10016000000000000000000000000000000000008F
:10017000000000000000000000000000000000007F
:10018000000000000000000000000000000000006F
:10019000000000000000000000000000000000005F
:1001A000000000000000000000000000000000004F
:1001B000000000000000000000000000000000003F
:1001C000000000000000000000000000000000002F
:1001D000000000000000000000000000000000001F
:0401E0005FF8E0F1F3
:1001E40008B504F037FE4FF4803004F053FE31209C
:1001F40004F096FF0028FAD0102004F063F80220DF
:1002040004F04AF8002004F095FE002004F0A6FE55
:100214004FF4806004F098FE4FF480304FF4E01106
:1002240004F064FE012004F06DFE392004F078FF30
:100234000028FAD0022004F06BFE04F073FE0828B4
:10024400FBD108BD13B52820012104F027FF0121AB
:100254004FF4800004F02EFF10238DF807300E3B7E
:1002640002AC8DF80630202324F8043D21460548CD
:1002740004F029FB482304482146ADF8043004F077
:1002840022FB1CBD000C01400014014007B54FF4D3
:10029400C06003F0A5FE31238DF80430313B8DF8A6
:1002A40005308DF8063001A801338DF8073003F0CE
:1002B400A1FE0EBD10B500F0FDFC124C2A282070E2
:1002C40003D1114800F038FD207023782A2B07D180
:1002D4000D4BB3F84C00000400F0B2FE094B18704B
:1002E40023782A2B05D14FF4006000F067FE054BFC
:1002F400187023782A2B04D1002000F097FE014BBC
:10030400187010BD000000206800002010B5002403
:10031400ADF5956D2E2221460DF58B60CDF8544434
:1003240005F0CEF9FFF75CFFFFF78CFF01F0F8FE54
:1003340001F03CFF02F07CF8FFF7A8FFFFF7BAFFDB
:10034400204602F079F96946204602F0AFFF0DF528
:100354008A6104310DF5916003F0FCFA8CA8174909
:10036400012202F0B3FF164B1B782BBB0B2001F0CC
:100374009FFF14E001F05EFF012001F067FF0AE037
:100384001048802104F0F6FA0028F9D00E4B185DCD
:1003940001F032FF0134DDF8A4349C42F0D30DF5B2
:1003A40094638CA808494FF48062043303F03BF84B
:1003B40004460028D7D1DDE7FEE700BF3E58000819
:1003C4002400002000100140B800002001238B40CD
:1003D40082B0ADF80600BDF8062092B2134053FA7D
:1003E40001F1C8B202B070470346002002E00130B8
:1003F4005B08C0B2012BFAD1704708B50D4B5B6B9B
:1004040013F0450FFAD013F0040F04D0042004F0C5
:10041400D1FF032008BD13F0010F04D0012004F024
:10042400C9FF012008BD40F2FF5004F0C3FF2A2099
:1004340008BD00BF0080014038B50546434B5C6BE6
:1004440014F0450FFAD014F0040F04D0042004F083
:10045400B1FF032038BD14F0010404D0012004F0DE
:10046400A9FF012038BD04F01CFFA84259D140F275
:10047400FF5004F09FFF204604F01AFF344B00EABB
:100484000303002B3BD000283BDB10F0804F3AD114
:1004940010F0005F39D110F0805F38D110F0006F98
:1004A40037D110F0806F36D110F0807F35D110F441
:1004B400000F34D110F4800F33D110F4001F32D167
:1004C40010F4801F31D110F4002F30D110F4802F9C
:1004D4002FD110F4003F2ED110F4803F2DD110F411
:1004E400004F2CD110F4804F2BD110F4005F2AD18F
:1004F40000F0080000280CBF2A201A2038BD2A204A
:1005040038BD1C2038BD092038BD0A2038BD0B2059
:1005140038BD0C2038BD0D2038BD0E2038BD0F204D
:1005240038BD102038BD112038BD122038BD13202D
:1005340038BD142038BD152038BD162038BD17200D
:1005440038BD182038BD192038BD00BF00800140D7
:1005540008E0FFFD37B55D4A044612685C481204A2
:10056400002302600D220193426000933332C36082
:100574004FF480638260036104F074FE554B5B6B3F
:100584000093009B13F0450FF8D0009B13F0040F69
:1005940004D0042004F00EFF032095E0009D15F024
:1005A400010504D0012004F005FF01208CE004F0D3
:1005B40078FE0090009B0D2B73D140F2FF5004F0A5
:1005C400F9FE284604F074FE0190019B019A5B0A2F
:1005D40003F00F032370404B02EA0303002B4ED0B9
:1005E400019B002B4DDB019B13F0804F4BD1019BF2
:1005F40013F0005F49D1019B13F0805F47D1019B49
:1006040013F0006F45D1019B13F0806F43D1019B20
:1006140013F0807F41D1019B13F4000F3FD1019B64
:1006240013F4800F3DD1019B13F4001F3BD1019BB8
:1006340013F4801F39D1019B13F4002F37D1019B90
:1006440013F4802F35D1019B13F4003F33D1019B68
:1006540013F4803F31D1019B13F4004F2FD1019B40
:1006640013F4804F2DD1019B13F4005F2BD101981B
:1006740000F0080000280CBF2A201A2024E02A20B9
:1006840022E01C2020E009201EE00A201CE00B20B0
:100694001AE00C2018E00D2016E00E2014E00F20C4
:1006A40012E0102010E011200EE012200CE01320C4
:1006B4000AE0142008E0152006E0162004E01720C4
:1006C40002E0182000E019203EBD00BF28000020F1
:1006D400B80400200080014008E0FFFD30B5054665
:1006E4008DB014480C4603F0AFFD0021124803F00E
:1006F40082FD8022114B06924FF4007201930792FF
:1007040010234FF4006203930892103B4FF40052FD
:1007140001A9A408084802950494059309930A9230
:100724000B9303F03BFD0448012103F064FD0DB07D
:1007340030BD00BF00F0001044040240808001403E
:1007440030B505468DB013480C4603F07DFD0021FD
:10075400114803F050FD80220692104B4FF40072B2
:1007640007924FF400620193089200234FF4005261
:1007740001A9A408084802950393049405930993D6
:100784000A920B9303F00AFD0348012103F033FDA1
:100794000DB030BD00F000104404024080800140E0
:1007A4002DE9F74F8146002004F082FD10F000751A
:1007B40040F0DC80704C4FF0100840274FF0080ADE
:1007C4004FF480662046C4F800A0C4F80480A760F3
:1007D400E5602661009504F045FD4046FFF72CFED8
:1007E4002A2840F0C680DFF8A0814FF0370BD8F8F4
:1007F400003020461B042360C4F804B0A760E56001
:10080400266104F02FFD5846FFF716FE2A2840F013
:10081400B0805A485A4BC0F804A003603023836068
:100824002E3BC360013B436105610AF12B0A04F0CE
:100834004BFD20462560C4F804A0A760E56026614E
:1008440004F010FD5046FFF7F7FD2A2840F0918090
:10085400ADF1040508E04FF4001004F0A1FD18B157
:1008640004F058FD45F8040F464B5A6B40F22A63D6
:1008740002EA0303002BEED0082004F091FD20B11E
:10088400082004F097FD042073E0022004F088FDA2
:1008940020B1022004F08EFD02206AE0202004F042
:1008A4007FFD20B1202004F085FD062061E04FF497
:1008B400007004F075FD064628B14FF4007004F092
:1008C40079FD072055E040F2FF5004F073FD009BD2
:1008D400B9F1010F1BBA1ED113F4802F48D0D8F8F8
:1008E4000030254D1B0409F136094FF040084FF440
:1008F400806723602846C4F80490C4F80880E66042
:10090400276104F0AFFC4846FFF796FD2A2830D152
:1009140002232B601CE013F4803F29D0D8F8003068
:10092400154D1B044FF037094FF040084FF4806712
:1009340023602846C4F80490C4F80880E660276160
:1009440004F090FC4846FFF777FD2A2811D12E6069
:10095400062428466C60C5F80880EE602F6104F018
:1009640081FC204603B0BDE8F04F65E50E2000E0B1
:10097400252003B0BDE8F08FB8040020E80400206F
:10098400FFFF0F0000800140280000206D482DE982
:10099400F84F0025B2230375056045608560C56086
:1009A4000561694C04F010FC032004F035FC0120BF
:1009B40004F02CFC4FF48063204625606560A5603C
:1009C400E560236142F2107504F04CFC02E0013D45
:1009D40000F09380802004F0E3FC0028F7D092E03C
:1009E4005A4A013B526B12F0450F02D1002BF7D14A
:1009F40003E013B112F0040F14D0042004F0DAFC65
:100A0400402300253726A3604F484FF480632361B9
:100A140025606660E56004F025FC3046FFF70CFDB8
:100A2400A94607E012F0400F00F08580402004F052
:100A3400C1FC80E0402337250027A36042484FF4DF
:100A44008063656023612760E76004F00BFC28463F
:100A5400FFF7F2FC2A28054652D13B4E37254FF0CA
:100A6400000830464FF0400B4FF4806A6560C4F8CC
:100A74000080C4F808B0C4F80C80C4F810A004F0D6
:100A8400F1FB2846FFF7D8FC2A28054638D149F05F
:100A9400004343F48013336029237360C6F808B01D
:100AA400C6F80C80C6F810A0304604F0DBFB274BD8
:100AB4005E6B16F0450FFAD016F0040603D004203E
:100AC40004F078FC19E040F2FF5004F073FC304667
:100AD40004F0EEFB0137002804DB4FF6FF739F425E
:100AE400BBD10CE04FF6FE739F4208D810F0804F44
:100AF40006D0174B02225A6002E0032500E01B25B2
:100B04002846BDE8F88F40F2FF5004F053FC4FF440
:100B1400D5732360082363603833A360403BE360EC
:100B240009484FF48063236104F09CFB074B5A6B24
:100B340042F2107357E7064B01225A604FF0804986
:100B440078E700BFD0040020B804002000800140F2
:100B540028000020002008B504F05EFB2A2008BD10
:100B640070B504F065FB002800F099804E4D6B6869
:100B7400042B22D04D4802234360BE3300268360F9
:100B84004FF480630660C660036104F06BFBFFF7FB
:100B940034FC2A28044640F08580304604F088FB63
:100BA400A860042004F084FBE860082004F080FBC3
:100BB40028610C2004F07CFB68616B68012B03D96D
:100BC400062B01D0022B40D13848002303220360B6
:100BD4004260C3603D324FF480638260036104F07D
:100BE40041FB334B5C6B14F0450FFAD014F0040F47
:100BF40004D0042004F0DEFB032453E014F00104C9
:100C040004D0012004F0D6FB01244BE004F049FB9E
:100C1400032818D140F2FF5004F0CCFB204604F026
:100C240047FB10F4604F01D1030C0FE010F4005F98
:100C340007D110F4804F06D110F4004F05D00F24D3
:100C440030E013242EE010242CE001236A68164EB1
:100C5400042A26D0154833601B040360092343602B
:100C6400B733836000254FF48063C560036104F0EB
:100C7400F9FAFFF7C2FB2A28044613D1284604F0E8
:100C840017FBB061042004F013FBF061082004F0AA
:100C94000FFB30620C2004F00BFB706202E0252491
:100CA40000E02A24204670BD28000020B80400205B
:100CB4000080014013B53020012104F0EFF94FF416
:100CC400F853ADF8043003238DF806301748153374
:100CD40001A98DF8073003F0F6FD0423144801A997
:100CE400ADF8043003F0EFFD01214FF4806004F00F
:100CF400C9F90220012104F0C5F904F053FAFFF701
:100D040045FE2A2804460FD1FFF72AFF2A28044665
:100D14000AD1084801230375013B036043608360E3
:100D2400C360036104F050FA20461CBD001001406A
:100D340000140140D00400209F4A70B5546880F824
:100D44004E401388A0F84C309369190E8D09057034
:100D540001F03C05AD0801F003014570817003F416
:100D64007F01090CC17003F47F41090ADBB20171F0
:100D74004371D1690B0E1B01C380C58801F47F0345
:100D84001B0CADB245EA131503F00F03C5800372C3
:100D940001F47F431B0ADD094572C3F38015857294
:100DA400C3F34015C572C3F3001505730025012C68
:100DB400457337D803F003039B0203610369C9B287
:100DC40043EA81010161136A0469190E44EA91142A
:100DD400046101F03804E40801F007010475417569
:100DE40003F47F01090C4C09847501F01C0401F023
:100DF4000301A4084900C4750176017E03F47F430E
:100E04001B0A41EAD31101760569047E0126017AA1
:100E1400AD19023416FA01F115FA04F48164614340
:100E240041641BE0022C19D101F03F010904016166
:100E3400136A01691C0E41EA04210161016903F48A
:100E44007F0441EA14410161016903F47F430131E4
:100E5400C90441644FF400711B0A8164C3F3801117
:100E640003F03F035B0041768376817E92F8203065
:100E740041EAD31103F07F038176C376516A0B0EE6
:100E8400DC09047703F060046409447703F01C046C
:100E940003F00303A4089B008477C377C47F01F4A1
:100EA4007F031B0C44EA9314C477C3F3401480F803
:100EB400204003F00103002480F8214080F8223010
:100EC40001F47F431B0ADC0980F82340C3F3801438
:100ED40080F82440C3F3401480F82540C3F3001481
:100EE40080F82640C9B203F00C04A408490803F0B2
:100EF400030380F8274080F8283080F82910012166
:100F040080F82A1093681C0E80F82C4003F47F04A8
:100F1400240AC485C48D03F47F45A4B244EA15248D
:100F24001B06C4850363D368046B1D0E44EA0544A1
:100F34000463046B03F47F0544EA15240463046B1F
:100F440003F47F4544EA1524DBB2046380F83430AB
:100F540013691C0E80F8354003F47F042402846373
:100F6400846B03F47F4544EA05248463846BDBB219
:100F740044EA032383635369826B42EA1362826304
:100F840090F83C4003F47F02120C44EA121480F8F7
:100F94003C4003F47F44DBB2CB4002F00F02120268
:100FA400C287C28F92B242EA1422C28780F84030CC
:100FB40080F841102A2070BD2800002038B5194B54
:100FC40005465B68032B2AD0022B26D8B0F5805F38
:100FD40025D0B0F5006F0ED10120FFF7E1FB2A28E0
:100FE40004461DD1104801230375013B036043608F
:100FF4008360C5600DE00020FFF7D2FB2A28044679
:101004000ED1094801230375013B036043608360EB
:10101400C360036104F0D8F802E02A2400E0272426
:10102400204638BD28000020D0040020022803D820
:10103400024B18602A2070472620704708000020C1
:10104400094B402210B59A60403A0724DA604FF405
:10105400806218605C6018461A6104F003F9204647
:10106400BDE81040FFF7E8B9B80400202DE9F74FB8
:10107400044616460F46002900F00281DFF818A244
:101084002A23DFF808928AF804307F4B0025DFF822
:101094001082C9F800304846C9F80450C9F808500D
:1010A400C9F80C50C9F81050C9F81450C8F82850A1
:1010B400C8F82C5004F008F9284604F0CDF8284666
:1010C40004F0F6F810F0007F4B4640F0D780D8F8D3
:1010D4000420022A02D1640A4FF40076721E91B2EF
:1010E400B1F5006F80F0CC803240019240F0C880AE
:1010F40030460093FFF778F9DFF8A8B14022CBF827
:101104000820019A1025CBF80C2081464FF4806208
:101114005846CBF80450CBF81020CBF8006004F00C
:10112400A1F82846FFF788F92A280546009B40F0D5
:10113400A880554A5E601A604FEA09129A6002223A
:10114400DA60019A4FF001091A61C3F814904F480C
:1011540004F0BAF8019B4022C8F830304C4BCBF86D
:1011640000401F60019B1124CBF8082058464FF41F
:101174008062CBF80C30CBF81020C8F82C60CBF888
:10118400044004F06FF82046FFF756F92A28054674
:1011940077D1DAF80010022949D10BE04FF400406E
:1011A40004F0FEF830B104F0B5F838510434202CC2
:1011B400F9D12037374B40F22A645B6B03EA04040D
:1011C400002CEBD0082004F0EBF820B1082004F048
:1011D400F1F8042555E0022004F0E2F820B10220E1
:1011E40004F0E8F802254CE0202004F0D9F820B1FE
:1011F400202004F0DFF8062543E04FF4007004F0EB
:10120400CFF848B14FF4007004F0D4F8072538E063
:1012140004F080F847F8040B4FF4001004F0C0F811
:101224000028F5D140F2FF5004F0C4F829E0012968
:1012340011D148F22A3004F003F8D8F828301BB949
:101244009AF804302A2BF8D09AF804302A2B18D0B4
:10125400114B1D7915E0A1B9494640F22A3003F03B
:10126400EFFF484603F0F8FF38463146FFF768FAC7
:101274000A4802F0DAFF0028FAD002E00E2500E066
:1012840026252846BDE8FE8FFFFF0F00E804002056
:10129400CC04002000800140080000200020001041
:1012A40028000020B80400202DE9F04F85B00290FA
:1012B400144699468846002900F030819B4FDFF898
:1012C4007CB22A233B719A4E9A4B00255846CBF8A0
:1012D4000030B562F562CBF80450CBF80850CBF877
:1012E4000C50CBF81050CBF8145003F0EDFF284607
:1012F40003F0B2FF284603F0DBFF10F0007F40F05C
:101304000B817368022B04D1029A4FF40074520AC1
:101314000292631E9AB2B2F5006F80F0FF80234000
:10132400039340F0FB802046FFF75EF8DFF814A239
:101334004022CAF80820039A03461025CAF80C2054
:1013440050464FF480620193CAF80450CAF8102042
:10135400CAF8004003F086FF2846FFF76DF82A28F4
:101364000546019B40F0DD80B9F1010F40F2D980C0
:1013740009FB04F4B4F1007F80F0D0801B016E4AB5
:10138400CBF808300223C2F80080CBF80C30694A4D
:10139400039B4FF001096948CBF80020CBF81030CB
:1013A400F462C6F83090CBF80440CBF8149003F004
:1013B4008BFF029A4023CAF80020039A183DCAF80A
:1013C400083050464FF48063CAF80450CAF80C2021
:1013D400CAF8103003F046FF2846FFF72DF82A28F4
:1013E400054640F09E80396802296CD144460BE0E2
:1013F4004FF4004003F0D4FF30B103F08BFFE05111
:101404000437202FF9D120344D4B40F22A375B6B3F
:1014140003EA0707002FEBD0082003F0C1FF20B137
:10142400082003F0C7FF04257BE0022003F0B8FF87
:1014340020B1022003F0BEFF022572E0202003F059
:10144400AFFF20B1202003F0B5FF062569E04FF47B
:10145400007003F0A5FF48B14FF4007003F0AAFF39
:1014640007255EE003F056FF44F8040B4FF4001028
:1014740003F096FF0028F5D14FF4807003F090FF3D
:10148400E0B173681BB1022B01D0012B16D10023EC
:1014940040220C24CAF80030CAF80C3029484FF412
:1014A4008063CAF80820CAF81030CAF8044003F070
:1014B400D9FE2046FEF7C0FF2A2831D140F2FF5062
:1014C40003F078FF2DE0012909D148F22A3003F016
:1014D400B7FEB36AD3B93B792A2BFAD016E001BB25
:1014E400494640F22A3003F0ABFE484603F0B4FE0E
:1014F40040462146FFF724F9134802F096FE0028DF
:10150400FAD0B36A13B93B792A2BFAD03B792A2B48
:1015140007D0064B1D7904E00E2502E0262500E0E5
:101524000546284605B0BDE8F08F00BF080000203E
:1015340028000020FFFF0F00CC040020E804002056
:1015440000800140B8040020002000102DE9F04F75
:10155400002687B0044615468DF817608846002992
:1015640000F07081B84FDFF8F0A22A23DFF8F4927C
:101574003B71B64BC9F82860C9F82C605046CAF8CC
:101584000030CAF80460CAF80860CAF80C60CAF8E7
:101594001060CAF8146003F097FE304603F05CFE56
:1015A400304603F085FE10F0007F4E4640F048813F
:1015B4007368022B02D1640A4FF4007505F1FF3BF6
:1015C4001FFA8BF3B3F5006F80F03C811BEA050B27
:1015D40040F038812846FEF707FFDFF87492402375
:1015E40010224FF48061C9F80830C9F81010C9F806
:1015F4000420C9F80050C9F80CB003904846029181
:101604000093019203F02EFE019A1046FEF714FF98
:101614002A280299009B40F028813268C9F80830D2
:101624001204C9F800200D22C9F80420C9F81010CA
:10163400C9F80CB04846019203F014FE019A104612
:10164400FEF7FAFE2A2840F01081584603F030FED7
:10165400DFF8F8B121E0326840211204C9F8002013
:10166400C9F808100D224FF48061C9F80C30C9F88C
:101674000420C9F8101076480093019203F0F2FD9B
:10168400019A1046FEF7D8FE2A28009B40F0ED8010
:1016940018460BF1FF3B03F00BFE10F4807303D1EB
:1016A400BBF1000FD7D1DFE0BBF1000F00F0DC800D
:1016B4004023C9F80040C9F8083018244FF4806367
:1016C4004FF0000BC9F810306148C9F80440C9F85C
:1016D4000CB003F0C7FD2046FEF7AEFE2A2840F00A
:1016E400C4805C4B039AC3F80080584B173CCAF87B
:1016F4000030F5621301C6F830B05748CAF80450F8
:10170400CAF80830CAF80CB0CAF810B0CAF81440C5
:1017140003F0DAFD3968022958D128E04FF48040FB
:1017240003F03EFE18B3F36ACBEB03031F2B13D86D
:1017340013F0030F4FEA930418BF01344746002502
:1017440004E057F8040B03F0EBFD0135A542F8D390
:10175400A400A344A0440AE058F80400043403F0AD
:10176400DFFD202CF8D108F120080BF1200B3B4BB6
:1017740040F21A645B6B03EA0404002CCED0082008
:1017840003F00EFE20B1082003F014FE04206CE0E8
:10179400022003F005FE20B1022003F00BFE02201C
:1017A40063E0102003F0FCFD20B1102003F002FEE2
:1017B40005205AE04FF4007003F0F2FD00282ED00B
:1017C4004FF4007003F0F6FD07204EE0012909D123
:1017D40044F21A3003F034FDB36AD3B93B792A2BAF
:1017E400FAD016E0D9B940F21A30214603F028FDA8
:1017F40040462946FEF772FF204603F02DFD1848A7
:1018040002F013FD0028FAD0B36A13B93B792A2BEE
:10181400FAD03B792A2B02D00B4B187925E040F201
:10182400FF5003F0C7FD0DF11700FEF793FE2A28C1
:101834001BD19DF81730063BDBB2012BF3D914E022
:101844000E2012E0262010E008000020FFFF0F0009
:10185400B804002000050020E804002000800140B6
:101864000020001028000020292007B0BDE8F08FD8
:101874002DE9F04F002589B00390144604938DF8A8
:101884001F500F46002900F0AB81B64E2A23DFF823
:10189400E8923371DFF8D482B34BC8F82850C9F802
:1018A4000030C8F82C50C9F80450C9F80850C9F8D9
:1018B4000C50C9F81050C9F81450484603F004FD00
:1018C400284603F0C9FC284603F0F2FC10F0007F20
:1018D400454640F083816B68022B04D103994FF491
:1018E4000074490A039104F1FF3B1FFA8BF3B3F52B
:1018F400006F80F075811BEA040B40F07181204673
:10190400FEF772FDDFF86882102340224FF4806AEC
:10191400C8F80430C8F808200590C8F80040C8F892
:101924000CB0C8F810A04046019303F09BFC019B47
:101934001846FEF781FD2A2840F053812A688B4B14
:101944001204C8F8002040210D22C8F80420C8F869
:101954000810C8F80CB0C8F810A0404601930292D1
:1019640003F080FC029A1046FEF766FD2A28019BCC
:1019740040F03781049A012A40F21F815443B4F1A4
:10198400007F80F02D815A68022A30D81B684021DC
:101994001B04C8F800303723C8F80430C8F808100E
:1019A400C8F80CB0C8F810A04046019303F05AFCE4
:1019B400019B1846FEF740FD2A2840F01281049A44
:1019C40017234021C8F80020C8F80430C8F80810CC
:1019D400C8F80CB0C8F810A04046019303F042FCCC
:1019E400019B1846FEF728FD2A2840F0FA80039A46
:1019F40040234FF0190AC8F808304FF0000B4FF499
:101A04008063C8F80020C8F810305948C8F804A00A
:101A1400C8F80CB003F026FC5046FEF70DFD2A284A
:101A240040F0DF80534B05991F604F4BAAF1180A11
:101A3400C9F800300B01EC62C5F830A0C9F80440C5
:101A4400C9F80830C9F80CB0C9F810B0C9F814A026
:101A5400494803F039FC3168022976D126E04FF475
:101A6400804003F09DFC08B3EB6ACBEB03031F2B10
:101A740009D93859043403F053FC202CF9D1203708
:101A84000BF1200B12E013F0030F4FEA930418BF7D
:101A94000134B946002604E059F8040B03F040FC75
:101AA4000136A642F8D3A400A3443F19334B40F2B5
:101AB4001A345B6B03EA0404002CD0D0082003F032
:101AC4006FFC20B1082003F075FC042089E002209B
:101AD40003F066FC20B1022003F06CFC022080E0DD
:101AE400102003F05DFC20B1102003F063FC0520FE
:101AF40077E04FF4007003F053FC044628B14FF430
:101B0400007003F057FC07206BE04FF4807003F083
:101B140047FC002851D06B68022B4ED840230C257B
:101B2400C8F808304FF48063C8F810301048C8F87B
:101B34000040C8F80450C8F80C4003F093FB284652
:101B4400FEF77AFC2A284CD137E0012918D144F257
:101B54001A3003F075FBAB6A4BBB33792A2BFAD0EE
:101B640025E000BF08000020FFFF0F002800002030
:101B7400B804002000050020E80400200080014093
:101B8400D9B9514640F21A3003F05AFB504603F0DB
:101B940063FB38462146FEF7A1FD134802F045FBDE
:101BA4000028FAD0AB6A13B933792A2BFAD03379E7
:101BB4002A2B02D00D4B187913E040F2FF5003F0AA
:101BC400F9FB0DF11F00FEF7C5FC2A2809D19DF889
:101BD4001F30063BDBB2012BF3D902E00E2000E0FC
:101BE400262009B0BDE8F08F002000100800002076
:101BF400034B5B6B13F4405F0CBF00200120704764
:101C0400008001400948002310B5402203600C24E1
:101C1400C3604FF4806344608260036103F022FB7D
:101C24002046BDE81040FEF707BC00BFB804002002
:101C34002DE9F347394D0446EB69002013F0007F8A
:101C44000F4600908DF8070062D0354B354A5B682B
:101C540003F0FF030233B2FBF3F3009303F028FB1A
:101C640010F0007F56D16B682F4D022B02D1640A0D
:101C74007F0A00E028D82C4E2C604FF0400A202424
:101C84004FF000094FF4806830466C60C5F808A036
:101C9400C5F80C90C5F8108003F0E4FA2046FEF76E
:101CA400CBFB2A2837D10134304637607460C6F83C
:101CB40008A0C6F80C90C6F8108003F0D3FA2046AA
:101CC400FEF7BAFB2A2826D1402300242626AB603F
:101CD4004FF480632B6114482C606E60EC6003F059
:101CE400C1FA3046FEF7A8FB2A2814D100E00134DB
:101CF400009B9C42FBD30DF10700FEF72BFC2A2826
:101D040009D19DF80730063BDBB2012BF3D902E081
:101D1400252000E00E20BDE8FC8700BF280000203D
:101D24000080014040190100B804002070B5054648
:101D3400D0B10F4B0F481B680D241B0403604023D4
:101D4400836000264FF4806344600361C66003F03F
:101D540089FA2046FEF770FB2A28044605D130464E
:101D640003F0A6FA286000E02624204670BD00BFD8
:101D740028000020B80400202DE9F843064600207E
:101D840003F096FA10F0007740F09D80504C102537
:101D94004FF040084FF4806965602046C4F8008025
:101DA400C4F80880E760C4F8109003F05BFA284692
:101DB400FEF742FB2A28054640F08680454B0D3548
:101DC4001B6865601B0423602046C4F80880E76034
:101DD400C4F8109003F046FA2846FEF72DFB2A2893
:101DE400054671D13C483D4B1D3D03606023836033
:101DF4005E3BC360013B4361C0F80480076103F0AC
:101E040063FA656020462760C4F80880E760C4F878
:101E1400109003F027FA2846FEF70EFB2A28054601
:101E240052D10BE04FF4004003F0BAFA30B103F0A2
:101E340071FA30510434202CF9D12036284B40F269
:101E44002A645B6B03EA0404002CEBD0082003F043
:101E5400A7FA20B1082003F0ADFA042534E00220EB
:101E640003F09EFA20B1022003F0A4FA02252BE02D
:101E7400202003F095FA20B1202003F09BFA0625D8
:101E840022E04FF4007003F08BFA48B14FF4007075
:101E940003F090FA072517E003F03CFA46F8040B28
:101EA4004FF4001003F07CFA0028F5D140F2FF5003
:101EB40003F080FAA6F140031A6812BA43F8042B1F
:101EC400B342F9D100E00E252846BDE8F88300BFEF
:101ED400B804002028000020E8040020FFFF0F00C1
:101EE400008001402DE9F041734C2368012B4DD152
:101EF4004FF4004003F064FA064680B100256F4EAB
:101F0400376803F007FA78510435202DF7D1336888
:101F1400203333606A4B5A6B20325A6336E04FF4F5
:101F2400804003F04DFA002830D0654DEB6A6A6BAF
:101F34009A1A1F2A1CD86A6B9A1A12F0030F6A6B3A
:101F4400C2EB03084FEA980818BF08F101080026FD
:101F54000BE05C4F01363B68186803F0E1F93B681D
:101F640004333B606B6B04336B634645F1D30DE084
:101F7400544F3B689859043603F0D2F9202EF7D118
:101F84003B6820333B606B6B20336B634FF4807092
:101F940003F016FA0546002833D02368484D6BB980
:101FA40016E0464ED6F8008003F0B4F93368C8F85A
:101FB4000000043333607B6B04337B634FF4001005
:101FC40003F0EEF920B16A6BEB6A3D4F9A42E8D315
:101FD4002B6B012B03D1FFF715FE207101E02A239F
:101FE40023714FF4807003F0F5F94CF23A3000217C
:101FF40003F026F90123AB62013B6B632079BDE852
:10200400F081022003F0DCF9064658B1022003F007
:10201400E1F94CF23A30294603F012F9284B022038
:102024005D6343E0082003F0CBF9054658B108206E
:1020340003F0D0F94CF23A30314603F001F9204B69
:1020440004205E6332E0202003F0BAF9064658B15A
:10205400202003F0BFF94CF23A30294603F0F0F89F
:10206400174B06205D6321E0102003F0A9F9054613
:1020740058B1102003F0AEF94CF23A30314603F077
:10208400DFF80F4B05205E6310E04FF4007003F09F
:1020940097F970B14FF4007003F09CF94CF23A30A8
:1020A400294603F0CDF8064B07205D632071BDE897
:1020B400F0812A20BDE8F08108000020CC04002033
:1020C40028000020000500207047182110B504489E
:1020D40002F0FDFD02481421BDE8104002F0F7BDF6
:1020E40000580040FEE7FFF7FDBEFEE7FEE7FEE70F
:1020F400704770477047202110B5064802F03AFC3B
:10210400D0F10102034838BF00222021BDE810406D
:1021140002F046BC000C014001EA0000000A7047CE
:1021240013B501214FF4804002F0C4FF5020012177
:1021340002F0B4FF4EF20003ADF8043003238DF82F
:10214400063001A91533164810248DF8073002F023
:10215400BAFB4FF4805301A91148ADF804308DF84F
:10216400074002F0B0FB8023ADF8043001A9282316
:102174000C488DF8073002F0A6FB402301A909485A
:10218400ADF804308DF8074002F09DFB01230648AA
:1021940001A9ADF804308DF8074002F094FB1CBD92
:1021A400000C014000100140001801407FB54FF4BD
:1021B40082720023ADF806204FF40072ADF80430AB
:1021C400ADF80830ADF80A30ADF80C30ADF80E209B
:1021D400ADF812302022072301A90648ADF81020DB
:1021E400ADF8143003F02EF90248012103F0B3F9DD
:1021F40007B000BD0038004008B5074B1A8912F03B
:10220400020FFAD098810448038913F0010FFAD021
:1022140003F0D7F9C0B208BD003800407047D0F1D0
:102224000102034838BF0022012102F0B9BB00BFFC
:1022340000180140D0F10102034838BF00224FF4D6
:10224400805102F0ADBB00BF000C0140D0F101028F
:10225400024838BF0022402102F0A2BB0010014016
:1022640070B5054600200C461646FFF7EFFF0F48F1
:10227400802102F07FFB0028F9D00120FFF7DAFF6C
:102284000220FFF7B9FF2846FFF7B6FF2046FFF705
:10229400B3FF3046FFF7B0FF0448802102F06AFB29
:1022A4000028F9D00020BDE87040C3E700100140C9
:1022B40010B504460020FFF7C9FF1248802102F040
:1022C40059FB0028F9D00120FFF7B4FF0320FFF7E2
:1022D40093FF2046FFF790FF0020FFF78DFF0402D5
:1022E4000020FFF789FFA4B20443A4B2054880216B
:1022F40002F040FB0028F9D00020FFF79BFF2046A6
:1023040010BD00BF0010014008B50120FFF787FF92
:10231400FF20FFF771FF0020FFF78CFF0020FFF77D
:1023240095FF0020FFF77BFF0348802102F022FB8A
:102334000028F9D008BD00BF0010014010B50120ED
:10234400FFF76DFFFFF7E0FFFF20FFF755FF0020C9
:10235400FFF770FF0020FFF779FF0020FFF75FFF12
:10236400002008212022FFF77BFF1248802102F081
:1023740001FB0028F9D00120FFF768FF5320FFF785
:102384003BFFEF20FFF738FF6E20FFF735FF2420D7
:10239400FFF732FF0020FFF72FFF0020FFF72CFF8D
:1023A4000020FFF729FF0020FFF726FF0020BDE8EB
:1023B40010404BE70010014001EA0000104180B2D8
:1023C400704700292DE9F04788460746B8BF01F158
:1023D4001F08012000240D464FEA6818FFF736FF56
:1023E400264612E00F48802102F0C4FA0028F9D0F2
:1023F40004F1200AA14617F8090009F10109FFF7C1
:10240400FBFED145F7D1203401364645EADD03E031
:10241400385DFFF7F1FE0134AC42F9DB0020BDE882
:10242400F04713E70010014000200146042217E79B
:1024340008B50120FFF7F3FEFF20FFF7DDFE0020C3
:10244400FFF7F8FE0020FFF701FF0020FFF7E7FE8B
:10245400FFF7EAFF1548802102F08CFA0028F9D032
:10246400002002460821FFF7FBFE032098210022EA
:10247400FFF7F6FE0520AC214522FFF7F1FE02200E
:1024840008210022FFF7ECFE0B2001460246FFF76D
:10249400E7FE012000213322FFF7E2FE03488021FA
:1024A40002F068FA0028F9D008BD00BF001001400E
:1024B40008B50B20FFF7FCFEC0B208BD01460A4672
:1024C4000B20CDE610B50446FFF7F2FF041B84424F
:1024D40001DD002000E0E0B2BDE81040EEE710B5F9
:1024E4000446FFF7E5FF0419844201DBFF2C01D108
:1024F400FE2000E0E0B2BDE81040DFE708B50220AE
:10250400FFF7D6FE000BC0B208BD70B50546022029
:10251400FFF7CEFE082D044606D84FF47061FFF78E
:10252400FBFD40EA051105E04FF47061FFF7F4FD8F
:1025340060F07F010220C9B2E2B2BDE870408FE6CC
:1025440010B50446FFF7DAFF0019072801DD08205B
:1025540000E0C0B2BDE81040D7E710B50446FFF76D
:10256400CDFF041B844201DD002000E0E0B2BDE8A1
:102574001040CAE770B504460220FFF799FE0F2CFD
:1025840005460BD84FF47041FFF7C6FD44EA00013D
:10259400C9B20220EAB2BDE8704061E670BD08B578
:1025A4000220FFF785FE00F0F000000908BD10B519
:1025B40004460220FFF77CFE0F2C9ABF00F00F02A6
:1025C40042EA041260F00F02010AC9B20220D2B238
:1025D400BDE8104044E610B50446FFF7E0FF0019DB
:1025E4000E2801DD0F2000E0C0B2BDE81040DEE798
:1025F40010B50446FFF7D3FF041B844201DD00201D
:1026040000E0E0B2BDE81040D1E770B50446022016
:10261400FFF74EFEA31EDBB20D2B05460BD84FF47D
:102624007F41FFF779FD05F0F002C1B22243022099
:10263400BDE8704014E670BD00207047002070476C
:10264400012B08B54FEA422004D14FF40072FEF783
:102654000DFD03E04FF40072FEF726FE002008BDD6
:10266400012B08B54FEA422004D14FF40072FEF763
:102674006DFF03E04FF40072FFF7FAF8002008BD85
:10268400002070470020704703E011F8013B00F878
:10269400013B013AF9D2704701E000F8011B013A0D
:1026A400FBD2704730B50346002432B11D5D085D8E
:1026B400013A0134281AF8D030BD104630BDC36940
:1026C4000239023B994204D28278836A02FB0130C8
:1026D400704700207047036970B501F10904002BAD
:1026E4004DD0436900251E7B20465A5D0446202AAE
:1026F40012D0052A08BFE52216F0080F06D0A2F171
:102704004104E4B2192C01D82032D2B2013500F8C8
:10271400012B082D0446E8D11A7A202A18D0024643
:102724002E2002F8010B0825585D144620280FD0EE
:1027340016F0100F06D0A0F14104E4B2192C01D810
:102744002030C0B2013502F8010B0B2D1446EBD139
:10275400DA7A0A729A7FD87F120442EA0062187FFA
:102764000243587F42EA00220A60587E1A7E42EAF7
:1027740000228A80DA7D9B7D43EA0223CB800023FA
:10278400237070BD08B560B1037853B1C3888B4220
:1027940009D14078FFF752FF10F0010018BF032061
:1027A40008BD092008BD092008BD10B504460A4625
:1027B400407804F130010123FFF742FFD8B994F8BF
:1027C4002E3294F82F2243EA02220E4B12B29A427E
:1027D40013D104F166000C490322FFF763FF78B1BB
:1027E40004F1820008490322FFF75CFF38B994F82A
:1027F4005800C00910BD032010BD022010BD0120E7
:1028040010BD00BF55AAFFFFBA5700082DE9F041DB
:10281400036815461A78303A092A07D85C783A2CA6
:1028240004D102330360002A40F01D81A24E3468B3
:102834000C60002C00F01A81237873B16078FFF7E4
:10284400FDFE10F0010F08D1002D00F0128110F0F0
:10285400040018BF0A20BDE8F081002020706070D9
:10286400FFF7EAFE10F0010F40F006811DB110F0F1
:10287400040F40F0048100212046FFF796FF012851
:1028840017D194F8F231002B00F0FF8094F8F8711E
:1028940094F8F9313F0447EA036794F8F631204687
:1028A4001F4394F8F73147EA03273946FFF77DFFC2
:1028B40000E00027032800F0E580002840F0E580D0
:1028C40094F83C2094F83B3043EA0223B3F5007FAC
:1028D40040F0DE8094F8472094F8463053EA02230F
:1028E4000DD194F8563094F857201B0443EA026340
:1028F40094F85420134394F8552043EA022394F89F
:10290400402094F842C094F84100A361E27053431C
:1029140094F83F1094F83E2040EA0C2094F8448048
:1029240094F843C042EA012194F83D507A185CEAD5
:10293400082C2262A57020810FD194F852C094F81B
:1029440053804FEA0C4C4CEA086C94F850804CEAE3
:10295400080C94F851804CEA082CC1EB0C010009D6
:10296400C91A091AB1FBF5F1023140F6F675A9420C
:10297400E16106D94FF6F675A94200F28C80022572
:1029840000E00125991861621218D318A3624FF070
:10299400FF3323610133032D23715AD1A37294F8B9
:1029A400612094F86030607843EA0222BA186261C8
:1029B40004F130010123FFF743FE002849D194F8C4
:1029C4002E3294F82F2243EA02223C4B12B29A424E
:1029D4003FD194F8322094F83330120442EA03626F
:1029E40094F830301A4394F8313042EA0322344BDD
:1029F4009A422ED194F8162294F81732120442EA1D
:102A0400036294F814321A4394F8153242EA03220A
:102A14002C4B9A421DD194F81E3294F81F221B04A9
:102A240043EA026394F81C22134394F81D2243EAF8
:102A34000223E36094F81A3294F81B221B0443EA3D
:102A4400026394F81822134394F8192243EA0223E8
:102A540023612570B388002001339BB2E062B38008
:102A6400E380BDE8F0810B20BDE8F0810C20BDE8D7
:102A7400F0812846BDE8F0810320BDE8F0810A20FA
:102A8400BDE8F0810120BDE8F0810D20BDE8F081B2
:102A94000D20BDE8F08194F85E1094F85F500904AD
:102AA40041EA056194F85C50294394F85D5041EA89
:102AB40005216162032567E76000002055AAFFFF36
:102AC40052526141727241612DE9F041C56A044676
:102AD4008D420E462AD00379E3B100F13008414615
:102AE40040782A460123FFF7BBFD10BBA269236A85
:102AF4002071D3189D420DD2E77809E0A36960786C
:102B0400ED1841462A460123FFF7AAFD013FFFB213
:102B1400012FF3D886B1607804F1300132460123E5
:102B2400FFF78EFD58B9E662BDE8F0810020BDE8EC
:102B3400F0810120BDE8F0813046BDE8F08101203C
:102B4400BDE8F08101292DE9F04105460C465AD92A
:102B5400C369994257D20378066A022B29D0032B02
:102B640037D0012B52D101EB510706EB5721FFF768
:102B7400ABFF00284AD1FB05DB0D0137EB182846D3
:102B840006EB572193F83080FFF79EFF00283DD1D4
:102B9400FF05FF0DEF1997F8300014F0010F48EA14
:102BA400002002D00009BDE8F0810005000DBDE859
:102BB400F08106EB1121FFF787FF38BB240605EBF4
:102BC400D45595F8310095F8303043EA0020BDE83B
:102BD400F08106EBD111FFF777FFD8B9640605EB56
:102BE400D45595F8320095F83330000440EA036078
:102BF40095F8303095F83180184340EA082020F0E9
:102C04007040BDE8F0810120BDE8F0814FF0FF3055
:102C1400BDE8F0814FF0FF30BDE8F08170B50446A7
:102C24000D46E1808168012939D00368DA6991424F
:102C340035D271B91A78032A01D1596A49B90022E7
:102C4400E2601A89AA422AD95B6A03EB151323614D
:102C54001AE09E7836010EE02068FFF773FFB0F1AA
:102C6400FF3F014619D0012819D92368DB6998422E
:102C740017D2AD1BADB2B542EED2E1602068FFF7CA
:102C84001EFD00EB15102061236805F00F0530339D
:102C94006D015D196561002070BD012070BD0220C9
:102CA40070BD022070BD01292DE9F04104460D4696
:102CB40016466DD9C36999426DD20378076A022B0F
:102CC4003FD0032B4BD0012B5DD101EB510807EB17
:102CD4005821FFF7F9FE002856D14FEAC853DB0DFF
:102CE40015F00105F2B207D0E11891F8301001F0A7
:102CF4000F0141EA0212D2B2E31883F8302008F13E
:102D0400010801232371204607EB5821FFF7DCFE5D
:102D1400D0BB4FEAC8584FEAD85815B13609F6B2B5
:102D24000AE004EB080393F83030360A23F00F036B
:102D340006F00F0643EA060604EB080383F8306046
:102D440022E007EB1121FFF7BFFEE8B92D0604EBE3
:102D5400D55585F83060360A85F8316014E007EB04
:102D6400D111FFF7B1FE78B96D0604EBD555330ADE
:102D740085F8306085F83130330C360E85F8323002
:102D840085F8336000E0022001232371BDE8F0815F
:102D94000220BDE8F0810220BDE8F0812DE9F04178
:102DA4000546D0F81C800E4629B9C7685FB147456F
:102DB40028BF012708E0FFF7C5FE012832D94045A6
:102DC4003BD3374600E001273C460134444502D357
:102DD400012F2AD9022428462146FFF7B3FE38B131
:102DE400B0F1FF3F29D0012827D0BC42EDD11CE02F
:102DF400284621466FF07042FFF755FFC0B92EB147
:102E0400284631462246FFF74EFF88B92B69EC600D
:102E1400B3F1FF3F10D0013B2B610123AB7220467D
:102E2400BDE8F0810120BDE8F0810020BDE8F0811B
:102E34004FF0FF30BDE8F0812046BDE8F081012964
:102E440070B504460E4623D9C36999421AD31FE0CC
:102E540020463146FFF776FE0546C0B1012817D05B
:102E6400B0F1FF3F16D0204631460022FFF71BFF8A
:102E740088B92369B3F1FF3F03D0013323610123F0
:102E8400A3722E46E3699E42E2D3002070BD70BD5A
:102E9400022070BD012070BD2DE9F041C6880446B2
:102EA4000136B6B20F46002E6BD00369002B68D0F2
:102EB40016F00F0F5AD1C16801330361006819B9C4
:102EC4000389B34252D85CE08378013B13EA1613BA
:102ED4004CD1FFF737FE0128054658D9B0F1FF3F22
:102EE40058D02068C3699D423AD3002F49D0E16885
:102EF400FFF754FF0546002846D0012847D0B0F11B
:102F0400FF3F47D020680021FFF7DEFD0746002879
:102F140040D12068394630304FF40072FFF7BCFBD3
:102F2400D4F8008029464046FFF7C9FBC8F82C00B6
:102F34000FE04FF0010883F8048020680021FFF7B8
:102F4400C3FD002829D123684744DA6AFFB242440A
:102F5400DA6223689A78BA42EBD8DA6AD71BDF625E
:102F6400E56020682946FFF7AAFB20612368E68014
:102F740006F00F06303376019E1966610020BDE825
:102F8400F0810420BDE8F0810720BDE8F081022033
:102F9400BDE8F0810120BDE8F0814046BDE8F08144
:102FA40070B500210446FFF739FE054610BB2068C2
:102FB4002169FFF789FD0546E0B963691B78E52BB4
:102FC4001AD0CBB120460121FFF766FFEDE7666911
:102FD400294630462022FFF75FFB0B223046A169C9
:102FE400FFF752FBA3690122DB7A03F01803337362
:102FF40023681A71284670BD20682169FFF764FDB3
:1030040005460028F6D1E2E710B5C1880446FFF76B
:1030140005FE50B920682169FFF756FD28B9636998
:10302400E5221A702368E43A1A7110BD10B504231E
:10303400044614E02068FFF747FDD0B962691378AD
:10304400B3B1E52B05D02E2B03D0D37A13F0080FA0
:103054000DD020460021FFF71FFF034648B9216920
:103064000029E7D1184613B100222261184610BD89
:1030740004200346F8E770B500210446FFF724FD59
:103084000546002D4FD12378032B44D1A37A002B7E
:1030940041D004F13006304629464FF40072E5620F
:1030A400FFF7FAFA552384F82E32DB1884F82F320E
:1030B400583B84F8303084F831300F3384F83230A0
:1030C40084F817322369412284F8332084F81622C5
:1030D4001A0A84F8183284F819221A0C1B0E84F880
:1030E4001B32E36884F81A221A0A722184F81C320B
:1030F40084F81D221A0C1B0E84F8141284F815127D
:1031040084F81E2284F81F326078314662690123F4
:10311400FFF7A6FAA572002160780A46FFF7B0FA15
:10312400003818BF012070BD2DE9F0410B78054629
:103134002F2B0E4601D05C2B00D101360027AF6047
:1031440033781F2B06D828463946FFF767FD6F6191
:103154000446A4E0AC69202120460B22FFF79CFA28
:1031640000210F4608200A46F35D01371F2B3BD987
:103174002F2B3BD05C2B39D02E2B01D081420ADB84
:10318400082840F089802E2B40F08680920001466A
:10319400D2B20330E8E713F0800F03D0DFF804C1A4
:1031A40063441B79DFF800C11CF8018FB8F1000FEC
:1031B40002D09845F8D16FE0A3F1410C5FFA8CFC82
:1031C400BCF1190F02D842F002020AE0A3F1610C2B
:1031D4005FFA8CFCBCF1190F03D8203B42F00102CA
:1031E400DBB263540131BFE7042300E0002300296C
:1031F40052D02178E52901D1E0392170082801D184
:103204009200D2B202F00301012902F00C0208BFBD
:1032140043F01003042A08BF43F00803E37228466E
:103224000021FFF7FBFC0446B8B928682969FFF7B9
:103234004BFC044688B9686903786BB1C37A13F010
:10324400080F04D1A9690B22FFF72CFA28B12846EC
:103254000021FFF721FEE6E70424AB69DB7A03F0E3
:103264000403DBB22CB1042C19D1002B08BF0524B4
:1032740015E0A3B96B69DA7A12F0100F0ED0597DFC
:103284001A7DF61942EA0122D97E9B7E43EA012384
:1032940043EA0243AB605DE7062400E005242046D0
:1032A400BDE8F0813A5700084658000848B9064A74
:1032B400136803B1187009B100230B70116000206A
:1032C40070470B20704700BF600000202DE9F041DB
:1032D4008CB0044600230CA802F01F0540F82C1DF6
:1032E400236002A905F01E02FFF790FA002840F0BF
:1032F400978009AB02A801990893FFF715FF15F011
:103304001C0F54D060B1042840F08A8002A8FFF753
:1033140047FE002840F0848045F00805079E32E00F
:1033240015F0040F77D1079E002E78D0F37A13F0AE
:10333400110374D115F0080F25D0327D777DF17E0D
:1033440042EA0727B27E33757375B376F376337723
:103354007377B377F377029842EA0122012352EAA2
:1033640007470371D0F82C8007D03946FFF767FD73
:10337400002855D1029B013FDF6002984146FFF7C8
:10338400A3FB00284CD115F0080F1FD00023F372C3
:10339400FFF778F9030AB073F373030C000E337468
:1033A4007074029B01221A7145F020050EE000287A
:1033B40036D1079E002E30D0F37A13F0100F2CD1A3
:1033C40015F0020F02D013F0010F28D1029BDA6A24
:1033D400A571E261079A2262327D717DF07E42EA34
:1033E4000121B27E42EA002242EA01422261B27F16
:1033F400F17F120442EA0162317F00200A43717FA7
:10340400236042EA0122E260FF22E271DB88A060CD
:10341400A061A38004E0082002E0042000E007206B
:103424000CB0BDE8F0812DE9F84F04469A4600231C
:103434008846CAF800300068A1881646FFF7A2F94A
:103444000546002840F0AA80A37913F0800F40F0CD
:10345400A28013F0010F00F0A080E268A368C3EB20
:1034640002094E4538BFB14690E0A268D305DB0D92
:10347400002B71D12068E179837899420DD30AB980
:10348400206902E06169FFF75DFB01280CD9B0F106
:10349400FF3F57D000236061E371D4F800B0616945
:1034A4005846FFF70CF920B9A37963F07F03A371A1
:1034B40071E0E3795FEA592600EB030725D09BF816
:1034C4000220F118914288BFC3EB0206F3B29BF8C5
:1034D400010041463A46FFF7B3F8A379002832D1F8
:1034E40013F0400F0CD0A369DF1BB74208D27F0250
:1034F40008EB070004F124014FF40072FFF7C4F84D
:10350400E379F318E371760235E0A37913F0400F01
:103514000CD001239BF8010004F12401A269FFF7F8
:103524009FF8A37978B923F04003A371A369BB4240
:103534000ED0214651F8243B3A4658780123FFF730
:103544007FF828B1A37963F07F03A371012525E0F7
:10355400E379A7610133E371A36804F12401DB0576
:10356400DB0DC3F50076B14538BF4E464046C91859
:103574003246FFF789F8A368B0449B19A360DAF8D0
:103584000030C6EB09099B19CAF80030B9F1000FE5
:103594007FF46BAF02E0022500E007252846BDE872
:1035A400F88F2DE9F84F04469A4600238946CAF855
:1035B40000300068A1881646FFF7E4F805460028A5
:1035C40040F0C180A37913F0800F48D113F0020FAB
:1035D40000F0B880E368DE4228BF0026A5E0A268B8
:1035E400D305DB0D002B40F083802068E1798378DC
:1035F400994217D332B9216959B9FFF7CFFB014674
:10360400206103E06169FFF7C9FB0146002900F06E
:103614008F800129A3791FD0B1F1FF3F5ED0002331
:103624006161E371A37913F0400F0DD0214651F885
:10363400243BA26958780123FFF712F8A3790028E4
:103644004CD123F04003A371D4F800B0616958460B
:10365400FFF735F828B9A37963F07F03A371022536
:1036640071E0E379770A00EB030826D09BF8022087
:10367400F918914288BFC3EB02079BF80100494641
:103684004246FBB2FEF7ECFF38BBA369C8EB030864
:10369400B8450DD24FEA482804F1240009EB08018B
:1036A4004FF40072FEF7F0FFA37923F04003A371F7
:1036B400E379FB18E3717F022DE0A369434512D03F
:1036C400A268E3689A420ED29BF8010004F1240137
:1036D40042460123FEF7B4FF28B1A37963F07F03C8
:1036E400A37101252FE0E379C4F818800133E37155
:1036F400A36804F12400DB05DB0DC3F50077BE42AB
:1037040038BF3746C01849463A46FEF7BDFFA3798D
:1037140043F04003A371A368B944DB19A360DAF84A
:103724000030F61BDB19CAF80030002E7FF457AFC7
:10373400A368E268934288BFE360A37943F020035F
:10374400A37100E007252846BDE8F88F70B504464C
:10375400A1880068FFF716F8002847D1A37913F071
:10376400200F43D013F0400F0DD0214651F8243BD5
:10377400A26958780123FEF773FF002835D1A37995
:1037840023F04003A3712068E169FFF79DF9002845
:103794002CD1256AEB7A43F02003EB72E3682B7794
:1037A400A3891B0A6B77E389AB77E37BEB77236908
:1037B400AB76238A1B0AEB76638A2B75638A1B0A12
:1037C4006B75FEF75FFF030AA875EB75030C000E1B
:1037D4002B766876A379012223F02003A371236852
:1037E4001A712068BDE8704045E4012070BD10B531
:1037F4000446FFF7ABFF00B9206010BDF8B50446DE
:103804000E460068A188FEF7BDFF0546002840F07B
:103814009F80A27912F0800F40F09980E3689E4265
:1038240004D902F00202002A08BF1E460022A3683F
:10383400A260FF32E271002E58D0206887787F02A0
:1038440073B1013B711EB1FBF7F1B3FBF7F2914287
:1038540006D37A4202EA0303A360F61A61690BE015
:10386400216941B9FFF79AFA0128014634D0B0F131
:10387400FF3F5BD020616161002936D01BE0A37952
:1038840013F0020F05D02068FFF788FA014620B92B
:1038940014E02068FFF756F90146B1F1FF3F45D027
:1038A400012919D92368DB69994215D2A36861619A
:1038B400DB19A360F61BBE42E1D800E03E46A368D4
:1038C400770A9B19F605FFB2F60DA360E7716EB196
:1038D4002068FEF7F4FE20B9A37963F07F03A37197
:1038E40035E0C6190137E77100E00E46A368DB0531
:1038F400DB0D13B3A26996421FD0A37913F0400FD6
:103904000BD0214651F8243B58780123FEF7A8FE3A
:10391400A37960B923F04003A371214651F8243BF5
:10392400324658780123FEF78BFE28B1A37963F061
:103934007F03A37101250BE0A661A368E2689342AB
:1039440006D9E360A37943F02003A37100E00225C4
:103954002846F8BD10B586B0044606A840F8141DE4
:1039640000222146FEF752FF18BB03ABA361204699
:103974000199FFF7D9FBB8B9636973B1DA7A12F028
:10398400100F15D0597D1A7D42EA0122D97E9B7E03
:1039940043EA012343EA0243A36023682046DB8809
:1039A4000021A380FFF73AF9042808BF052000E0AE
:1039B400052006B010BD7FB504460E460068A188F8
:1039C400FEF7E0FE0546E8B901ABA36126B920463F
:1039D4002946FFF723F914E02046FFF727FB0428C4
:1039E40001D1256100E060B920463146FEF773FE3F
:1039F40000212046FFF750FA042802D10023236156
:103A040000E00546284604B070BD30B58DB00CAB5F
:103A140043F82C0D0C46184602A90022FEF7F6FEC8
:103A2400054678B909AB02A801990893FFF77CFB16
:103A3400054638B9079B23B102A82146FEF74BFE81
:103A440000E0062528460DB030BD2DE9F34702AB52
:103A540043F8040D0D461446114618460022FEF79D
:103A6400D5FE0646002860D12368D3F81C801A6965
:103A7400A8F102018A4201D82A6056E093F8009026
:103A8400B9F1010F14D14FF00208074620684146EE
:103A9400FFF758F8B0F1FF3F42D0012842D000B9F7
:103AA4000137236808F10108DB699845EED32EE05D
:103AB400D3F820A00246034607465AB92068514667
:103AC400FFF702F800282FD123680AF1010A3033E6
:103AD4004FF40072B9F1020F08D15878197851EAFD
:103AE400002108BF01370233023A0DE09978D878F3
:103AF400090441EA006118780143587851EA00202A
:103B040008BF01370433043AB8F10108D5D123685A
:103B1400B9F1030F1F6101D101229A722F6004E0F1
:103B2400012602E0022600E006463046BDE8FC8796
:103B340070B50446A1880068FEF724FE06460028F6
:103B440036D1A37913F0800F2FD113F0020F2ED0AA
:103B5400A568E268AA422BD943F02003E560A3716B
:103B640035B920682169FFF76AF92561064616E030
:103B740020686169FEF7E6FFB0F1FF3F054619D002
:103B840001281BD118E061696FF07042FFF78BF8D0
:103B9400064628B920682946FFF751F906463EB182
:103BA400A37963F07F03A37102E0022600E00726F5
:103BB400304670BD0126F3E70226F1E72068C369A9
:103BC4009D42F5D2DFE730B595B014AB43F84C0D08
:103BD40018460AA90122FEF719FE0446002847D117
:103BE40011AB0AA801991093FFF79EFA0446002826
:103BF4003ED10F9B002B36D0DA7A12F0010F36D16A
:103C0400197D5D7D12F0100F41EA0525D97E9B7E5A
:103C140043EA012343EA054514D0012D25D903A81D
:103C24000AA91C22FEF730FD214603A80595FEF7DC
:103C3400F5FF0446E0B903A8FFF7F8F90446B0B16C
:103C4400042815D10AA8FFF7DFF9044680B92DB17D
:103C54000A982946FFF7F3F8044648B90A98FFF78B
:103C64000AFA044604E0062402E0022400E00724E1
:103C7400204615B030BD2DE9F04F8FB00EAB43F8A0
:103C84002C0D184604A90122FEF7C0FD8146044606
:103C9400002840F0BE800BAB04A803990A93FFF7F9
:103CA40043FA8146002800F0B280042840F0B18035
:103CB40004982146FFF772F80546002800F0AD800D
:103CC400012800F0AD80B0F1FF3F00F0AC80ADE022
:103CD400049C29462046FEF7F2FC04F130064146D6
:103CE4004FF4007207463046FEF7D6FC20210B2223
:103CF4003046FEF7D1FC4FF02E09102384F83B30F8
:103D040084F83090FEF7BEFC83B21B0A8DF80930AC
:103D140084F84730ABB21B0AEAB24FEA104A8DF876
:103D24000A3084F84B302B0C5FFA80F84FEA106BA2
:103D3400009284F84A205FFA8AFADAB21B0A0192E6
:103D440084F8442084F845302022314684F84680A3
:103D540084F848A084F849B004F150008DF80B3081
:103D6400FEF792FC84F85190049A069B117803297B
:103D740003D1526A934208BF002384F86A301A0AB6
:103D84001B0C84F864301B0A84F86B2084F86530BB
:103D9400002411E001230021C7620371FEF794FEA1
:103DA40001468146002834D130464FF40072FEF7B4
:103DB40073FC01340137E4B204988378A342E9D850
:103DC40004A8FFF7EDF8814620B104982946FFF7CF
:103DD40036F81EE0099B1022DA7283F816809DF8EB
:103DE400092083F818A0DA7583F819B0009A9A7636
:103DF4009DF80A20DA76019A1A759DF80B205A75F7
:103E0400049801230371FFF736F9814601E04FF06E
:103E1400080948460FB0BDE8F08F4FF00709F8E7EE
:103E24004FF00209F5E74FF00109F2E70498214643
:103E3400FEF74AFE8046814600283FF449AFE8E792
:103E440030B58DB00CAB43F82C0D0C461546184616
:103E540002A90122FEF7DAFCC0B909AB02A8019954
:103E64000893FFF761F988B9079B73B1DA7A05F013
:103E7400270522EA0502254042EA0505DD7202987B
:103E840001230371FFF7F7F800E006200DB030BD01
:103E940010B58CB00CAB43F82C0D0C46184602A997
:103EA4000122FEF7B3FCC8B909AB02A80199089333
:103EB400FFF73AF990B9079B7BB1E2889A75E288DB
:103EC400120ADA75A2881A76A288120A5A76029819
:103ED40001230371FFF7CFF800E006200CB010BDFA
:103EE40030B59BB001900C4617AB01A80AA901227A
:103EF4001093FEF78BFC00286ED10A9B0AA8019947
:103F04000393FFF711F9002866D10F99002960D0B7
:103F140011A80B311522FEF7B7FB03A80AA91C222E
:103F2400FEF7B2FB03A82146FFF7FEF8002852D0A3
:103F3400042851D103A8FFF733F800284CD1089C7A
:103F4400132204F10D000DF14601FEF79DFB9DF8CF
:103F54004430012243F02003E3720A9B1A71E37A8E
:103F640013F0100F2DD0A37EE17E627D43EA012180
:103F7400237D039D43EA022319432846FEF79FFB52
:103F8400014600282AD02846FEF79EFD039B18BB55
:103F940093F851202E2A14D11A78032A059A03D1B2
:103FA400596A8A4208BF0022110A83F86A20120C57
:103FB40083F86420120A83F86520012283F86B10C9
:103FC4001A710AA8FFF720F830B90A98FFF753F8D6
:103FD40002E0042000E008201BB030BD0220FBE713
:103FE40040F0BE60024B40F42020D860704700BF10
:103FF40000ED00E0C37810B5EBB1154B4178DB68F8
:104004008478DB4303F4E0631B0AC3F104029140A8
:104014000F22DA4022400A430E4B01781201CB18DA
:10402400D2B283F8002303780122590903F01F0355
:1040340012FA03F307E003780122590903F01F037E
:1040440012FA03F32031034A42F8213010BD00BFB5
:1040540000ED00E000E100E021F0604121F07F018B
:10406400014B01439960704700ED00E0044B11B12E
:104074001A69104302E01A6922EA000018617047C5
:1040840000ED00E0044B04281A680CBF42F004025F
:1040940022F004021A60704710E000E002684FF654
:1040A400FE7302EA0303036000230360436083603A
:1040B400C3602E4B984229D02D4B984230D02D4BC3
:1040C400984237D02C4B98423ED02C4B984206D184
:1040D40053F8542C42F4702243F8542C7047284B64
:1040E400984206D153F8682C42F4700243F8682CC5
:1040F4007047244B984206D153F87C2C42F07062EE
:1041040043F87C2C7047204B984206D153F8042C7A
:1041140042F00F0243F8042C70471C4B984206D11E
:1041240053F8182C42F0F00243F8182C7047184B3F
:10413400984206D153F82C2C42F4706243F82C2C8C
:104144007047144B984206D153F8402C42F4704205
:1041540043F8402C7047104B984205D153F8542C27
:1041640042F4702243F8542C704700BF0800024008
:104174001C0002403000024044000240580002404B
:104184006C00024080000240080402401C0402400B
:104194003004024044040240580402408A6810B5C6
:1041A4000C6A036844EA02020C6923F4FE432243C6
:1041B4004C6923F0F00322438C692243CC692243E7
:1041C4004C6A22438C6A224342EA03030360CB68AD
:1041D40043600B6883604B68C36010BD00230360B9
:1041E40043608360C360036143618361C3610362AD
:1041F40043628362704719B1036843F0010304E02A
:1042040002684FF6FE7302EA03030360704712B1BB
:104214000368194302E0036823EA0101016070475F
:1042240041607047406880B2704710F0805F14BFEF
:10423400034B044B1B6803420CBF00200120704752
:10424400000402400000024010F0805F14BF024BE3
:10425400024B5860704700BF000402400000024057
:1042640010F0805F14BF044B044B1B6803420CBF67
:1042740000200120704700BF0004024000000240FB
:1042840010F0805F14BF024B024B5860704700BFB0
:104294000004024000000240034B1A6802F0380296
:1042A40040EA02021A60704700200240044B1A6878
:1042B40022F008021A601A6840EA02021A60704783
:1042C40000200240044B1A6822F010021A601A6897
:1042D40040EA02021A60704700200240024B034A7F
:1042E4005A60034A5A607047002002402301674520
:1042F400AB89EFCD024B034A5A60034A5A607047B8
:104304000020024023016745AB89EFCD024B1A69B7
:1043140042F080021A61704700200240024B1A6981
:1043240042F080021A61704700200240014BD869B4
:104334008008704700200240014B186A704700BF94
:1043440000200240024BD869C0F34000704700BF10
:1043540000200240024B1868C0F34010704700BFB1
:1043640000200240044B11B11A69104302E01A699B
:1043740022EA000018617047002002400128064B21
:1043840003D1D86900F001007047DB6818420CBF04
:1043940000200120704700BF00200240014BD8607C
:1043A400704700BF002002400A4BDA6812F0010F88
:1043B4000BD1DA6812F0040F09D1D86800F01000AC
:1043C40000280CBF042003207047012070470220FE
:1043D400704700BF002002400A4BDA6812F0010F58
:1043E4000BD1DA6812F0040F09D1D86800F010007C
:1043F40000280CBF042003207047012070470220CE
:10440400704700BF0020024010B50446FFF7E4FFE8
:10441400012805D100E0013C002CFCD1052010BD91
:10442400002C08BF052010BDF8B5124E124B0446EF
:10443400B360124B4FF40050B3600D461746FFF7BC
:10444400E3FF042815D1336944F0F80443F0100362
:10445400336125430A4B2F435F804FF40050FFF72D
:10446400D3FF052805D0326941F6EF7302EA03034E
:104474003361F8BD0020024023016745AB89EFCDCD
:1044840000F8FF1F38B505464FF43020FFF7BCFF96
:10449400042838D11C4C1D4B4FF43020A3601C4B16
:1044A400A360236943F020032361236943F040039D
:1044B4002361FFF7A9FF04281DD1226941F6DF73A8
:1044C40002EA03032361236943F010032361114BC0
:1044D4000DB1002200E0A5221A804FF43020FFF72E
:1044E40093FF05280FD0084A41F6EF73116901EADA
:1044F4000303136138BD052805D0226941F6DF7333
:1045040002EA0303236138BD00200240230167450A
:10451400AB89EFCD00F8FF1F10B504464FF40050EF
:10452400FFF772FF042842D1214B2249E4439960EA
:104534002149E2B299601969FF2A41F01001196119
:1045440007D01E4B4FF400501A81FFF75DFF04287B
:1045540022D104F47F431B0AFF2B07D0174A4FF4E0
:1045640000505381FFF750FF042815D104F47F0352
:104574001B0CFF2B07D0114A4FF400509381FFF717
:1045840043FF042808D1240EFF2C08D00B4B4FF412
:104594000050DC81FFF738FF052801D110BD04204D
:1045A400034A41F6EF73116901EA0303136110BD75
:1045B4000020024023016745AB89EFCD00F8FF1FBF
:1045C40070B504464FF400500E46FFF71DFF042853
:1045D40015D10B4D0B4B4FF40050AB600A4BAB6045
:1045E4002B6943F010032B612680FFF70DFF05288C
:1045F40005D02A6941F6EF7302EA03032B6170BD0B
:104604000020024023016745AB89EFCD70B5044615
:104614004FF400500E46FFF7F7FE04280FD1084D63
:104624004FF400502B6943F001032B612680FFF700
:10463400EBFE2A6941F6FE7302EA03032B6170BDA7
:104644000020024073B5002304464FF400500E4688
:104654000193FFF7D9FE04281BD10E4D4FF40050EF
:104664002B6943F001032B61B3B22380FFF7CCFE27
:10467400042808D102340194019B360C1E804FF4A7
:104684000050FFF7C1FE2A6941F6FE7302EA0303F4
:104694002B617CBD0020024038B5FFF753FE002893
:1046A4000CBFA52500254FF43020FFF7ADFE0428EC
:1046B40033D11A4C1A4B4FF43020A360194BA3602A
:1046C400236943F020032361236943F040032361FA
:1046D400FFF79AFE042818D1226941F6DF7302EA33
:1046E4000303236123694FF4005043F01003236153
:1046F4000D4B1D80FFF788FE05280ED0226941F678
:10470400EF7302EA0303236138BD052805D022694B
:1047140041F6EF7302EA0303236138BD002002402F
:1047240023016745AB89EFCD00F8FF1F10B54FF4A7
:104734003020FFF769FE042812D10A4C4FF43020D0
:10474400236943F004032361236943F04003236195
:10475400FFF75AFE226941F6FB7302EA0303236161
:1047640010BD00BF0020024038B505464FF430208C
:10477400FFF74AFE042813D10A4C4FF43020236972
:1047840043F0020323616561236943F0400323611D
:10479400FFF73AFE226941F6FD7302EA030323613F
:1047A40038BD00BF0020024010B50446FFF714FED8
:1047B400012805D100E0013C002CFCD1052010BDEE
:1047C400002C08BF052010BD10B54FF43020FFF7B2
:1047D400EBFF042812D10A4C4FF43020236943F034
:1047E40004032361236943F040032361FFF7DCFFE3
:1047F400226941F6FB7302EA0303236110BD00BF83
:1048040000200240234B10B5984205D10420012119
:1048140000F05CFC042036E01F4B984205D10820D0
:10482400012100F053FC08202DE01C4B984205D1D7
:104834001020012100F04AFC102024E0184B98427B
:1048440005D12020012100F041FC20201BE0154B64
:10485400984205D14020012100F038FC402012E0AC
:10486400114B984205D18020012100F02FFC8020BB
:1048740009E00E4B98420BD14FF48070012100F0F7
:1048840025FC4FF480700021BDE8104000F01EBCF0
:1048940010BD00BF00080140000C014000100140A1
:1048A4000014014000180140001C01400020014098
:1048B4000120014610B500F009FC01200021BDE8EB
:1048C400104000F003BCCB78F0B513F0100F03F0E8
:1048D4000F020E881CBF8B781A4316F0FF0F1DD0F1
:1048E4000468002301279F4007EA0605BD4211D151
:1048F4009F004FF00F0C0CFA07FC12FA07F724EA9A
:104904000C043C43CF78282F01D1456102E0482FA5
:1049140008BF05610133082BE4D104600E88FF2E23
:104924001FD94468002303F108050127AF4007EAB3
:104934000605BD4211D19F004FF00F0C0CFA07FC85
:1049440012FA07F724EA0C043C43CF78282F01D14C
:10495400456102E0482F08BF05610133082BE2D10D
:104964004460F0BD4FF0FF33038002238370DB18F3
:10497400C3707047836819420CBF00200120704740
:10498400806880B27047C36819420CBF00200120C0
:104994007047C06880B270470161704741617047D9
:1049A4000AB10161704741617047C160704741F4C9
:1049B400803383618161836183698369704710B542
:1049C400054A4FF68073146841EA001104EA0303B0
:1049D40041EA0303136010BD00000140014B18605D
:1049E400704700BF1C00204230B50028174B00F46C
:1049F4004014B4BFDB695B68B4F5401F82B207D1D1
:104A0400124C23F07063656825F07065656011E0F1
:104A140010F4801F06D000F47024240C032515FA2A
:104A240004F403E0440D240112FA04F423EA040319
:104A340043F0706319B1410D09018A401343034ADD
:104A44000028B4BFD361536030BD00BF00000140F3
:104A540001F0030230B592000F24944010FA02F2E0
:104A6400074B8908023153F8215025EA040443F81E
:104A7400214053F8214042EA040443F8214030BD68
:104A840000000140014B1860704700BFDC00204269
:104A94000B4B10B5984207D14FF40010012100F0E0
:104AA40021FB4FF4001006E04FF48000012100F0D8
:104AB40019FB4FF480000021BDE8104000F012BB48
:104AC40000540040F0B587B00446868801A80D461E
:104AD400304F00F08DFA039826F03F063604B0FB01
:104AE400F7F7360CBFB247EA0606A68021882A6883
:104AF40021F00101284B0904090C9A4221800AD8AB
:104B04005300B0FBF3F301379BB2BFB22784032BEE
:104B140098BF042322E0E9884BF6FF73994205D13C
:104B240002EB4202B0FBF2F39BB206E019235343BB
:104B3400B0FBF3F39BB243F480431A05120D0AB998
:104B440043F001034FF4967257434FF47A7297FB84
:104B5400F2F70137BFB243F400432784A3832388C9
:104B640069899BB243F0010323802388AA8823F434
:104B7400806323F00A031B0441EA02021B0C134363
:104B84009BB223802A89AB8942EA03039BB2238127
:104B940007B0F0BD40420F00A086010041F2883307
:104BA4000360002383804BF6FF72038143814FF43B
:104BB4008043C2808381704721B103889BB243F054
:104BC400010304E0038823F001031B041B0C03808E
:104BD400704721B183889BB243F4006304E0838867
:104BE40023F400631B041B0C8380704721B183886A
:104BF4009BB243F4805304E0838823F480531B0462
:104C04001B0C8380704721B103889BB243F48073EB
:104C140004E0038823F480731B041B0C0380704797
:104C240021B103889BB243F4007304E0038823F4A6
:104C340000731B041B0C0380704721B103889BB2D3
:104C440043F4806304E0038823F480631B041B0C97
:104C540003807047838901F0FE0123F0FE031B04E7
:104C64001B0C41EA03038381704721B183899BB202
:104C740043F0010304E0838923F001031B041B0CAC
:104C84008381704721B103889BB243F0400304E061
:104C9400038823F040031B041B0C038070471AB1E4
:104CA40083889BB2194303E083889BB223EA010102
:104CB4008180704701827047008AC0B2704712B188
:104CC40041F0010101E001F0FE010182704782B070
:104CD400002301930190019BCB180193019B188839
:104CE40080B202B0704731B103886FEA43436FEA80
:104CF40053439BB202E003885B045B0C0380704760
:104D0400B1F5005F04D103889BB243F4005304E07F
:104D1400038823F400531B041B0C0380704721B148
:104D240003889BB243F4805304E0038823F4805344
:104D34001B041B0C03807047B1F5006F04D103887A
:104D44009BB243F4006304E0038823F400631B0470
:104D54001B0C0380704721B103889BB243F02003EE
:104D640004E0038823F020031B041B0C038070471A
:104D7400008B80B2000A704721B103889BB243F0D4
:104D8400100304E0038823F010031B041B0C0380AE
:104D9400704721B903889BB243F0800304E0038881
:104DA40023F080031B041B0C03807047B1F5804F74
:104DB40005D0838B23F480431B041B0C03E0838BFB
:104DC4009BB243F4804383837047838A008B9BB2F6
:104DD40043EA0040084020F07F40431A584240EB29
:104DE40003007047838A008B9BB243EA004020F0A3
:104DF4007F40704782B00023019300930B0F009013
:104E04000193019B21F07F4113B1009B143302E015
:104E1400009B090C18330093009B1B6819420CBFBC
:104E24000020012002B07047C94389B281827047D3
:104E34008388808A9BB280B2084006D001F0E0618A
:104E440013EA11410CBF002001207047C94389B205
:104E5400818270470D4B1A6842F001021A6059684A
:104E64000B4A01EA02025A601A6822F0847222F4A0
:104E740080321A601A6822F480221A605A6822F476
:104E8400FE025A604FF41F029A60704700100240FD
:104E94000000FFF80C4BB0F5803F1A6822F4803212
:104EA4001A601A6822F480221A6003D0B0F5802FA9
:104EB40009D104E01A6842F480321A6070471A6813
:104EC40042F4A0221A60704700100240034B1A6893
:104ED40022F0F80242EAC0021A6070470010024051
:104EE400014B1860704700BF00004242044B5A68EF
:104EF40022F47C1240EA02020A435A60704700BF5F
:104F040000100240014B1860704700BF600042422D
:104F1400034B5A6822F0030240EA02025A607047C7
:104F240000100240024B586800F00C00704700BFAC
:104F340000100240034B5A6822F0F00240EA0202D9
:104F44005A60704700100240034B5A6822F4E06232
:104F540040EA02025A60704700100240034B5A684C
:104F640022F4605242EAC0025A60704700100240C4
:104F7400044B11B11A78104302E01A7822EA0000B7
:104F84001870704709100240014B1860704700BF49
:104F9400D8004242034B5A6822F4404240EA0202DB
:104FA4005A60704700100240064B002201281A7014
:104FB4001A7002D0042804D101E018707047052249
:104FC4001A70704720100240014B1860704700BFF0
:104FD40080044242024B1A6A40EA02021A62704793
:104FE40000100240014B1860704700BF3C0442426D
:104FF40010B5204B5A6802F00C02042A01D0082A8A
:1050040002D01D4B036011E05A68596802F4701213
:10501400920C023211F4803F03D05B6813F4003F1A
:1050240001D0164B00E0144B5A430260114A144B52
:105034005168046801F0F0010909595C34FA01F17E
:105044004160546804F4E064240A1C5D31FA04F4F9
:105054008460546804F46054E40A1C5DE140C16057
:10506400526802F4404203EB92331B7CB1FBF3F130
:10507400016110BD0010024000127A0000093D00D9
:1050840010000020044B11B15A69104302E05A6920
:1050940022EA00005861704700100240044B11B12D
:1050A4009A69104302E09A6922EA00009861704705
:1050B40000100240044B11B1DA69104302E0DA69CE
:1050C40022EA0000D861704700100240044B11B17D
:1050D400DA68104302E0DA6822EA0000D860704718
:1050E40000100240044B11B11A69104302E01A691E
:1050F40022EA00001861704700100240014B18605A
:10510400704700BF40044242014B1860704700BF23
:105114004C004242014B1870704700BF0710024018
:105124004309012B074A01D1136803E0022B0CBF8A
:10513400136A536A00F01F0033FA00F000F0010014
:10514400704700BF0010024007B5002301933120CF
:10515400FFF7E6FF019B01330193019BB3F5A06FB9
:1051640001D00028F3D03120FFF7DAFF003818BF50
:1051740001200EBD024B5A6A42F080725A62704797
:1051840000100240034B9B6818420CBF0020012012
:10519400704700BF00100240014B1870704700BFF9
:1051A4000A100240064B074900221A605A609A60AE
:1051B400DA605A629A62DA629963DA63704700BF0E
:1051C40000800140FF07C00010B5816844680A4AA6
:1051D40044EA0101C46853682143046823F4FC438E
:1051E4002143046923F0FF03214341EA0303017DC2
:1051F4000B43536010BD00BF0080014000230375C2
:10520400036043608360C36003617047014B1860AF
:10521400704700BFA0003042044B1A6822F003021A
:105224001A601A6840EA02021A607047008001405E
:10523400024B186800F00300704700BF0080014073
:10524400044B11B1DA6B104302E0DA6B22EA00007E
:10525400D863704700800140014B1860704700BF5D
:105264008C05304210B50268094B9A608468416825
:10527400DA6844EA0101C468006922F4FE62214349
:1052840022F00F02014341EA0202DA6010BD00BFBE
:10529400008001400023036043608360C3600361B6
:1052A4007047024B1869C0B2704700BF00800140CC
:1052B40082B000230193034BC3180193019B186828
:1052C40002B07047148001400268094B10B55A625D
:1052D40042689A62C4688268D96A44EA020204692C
:1052E4004069224321F0F70102430A43DA6210BD08
:1052F400008001404FF0FF3303600133436083605B
:10530400C360036143617047014B186B704700BF72
:1053140000800140014BD3F88000704700800140B9
:10532400014BC3F88000704700800140014B986C2A
:10533400704700BF00800140014B1860704700BFF8
:10534400A0053042014B1860704700BFA4053042ED
:10535400014B1860704700BFA8053042014B18602C
:10536400704700BFAC053042014B1860704700BF66
:10537400AC013042014B1860704700BFB0013042AD
:1053840000F00100024B80F001001860704700BF7C
:10539400B4013042014B1860704700BFB80130427D
:1053A400034B5B6B18420CBF00200120704700BF09
:1053B40000800140014B9863704700BF00800140AA
:1053C400034B5B6B18420CBF00200120704700BFE9
:1053D40000800140014B9863704700BF008001408A
:1053E400154B10B598420BD101214FF48050FFF7B3
:1053F4006DFE4FF480500021BDE81040FFF766BEFB
:105404000E4B984207D14FF480400121FFF76AFE0A
:105414004FF4804009E00A4B98420BD14FF400400E
:105424000121FFF75FFE4FF400400021BDE810406A
:10543400FFF758BE10BD00BF0030014000380040E7
:10544400003C00400B8810B54C88028844EA0303F2
:105454008C8802F441522343CC8823430C89234390
:105464004C8923438C892343CC89234342EA030395
:105474009BB20380838B23F400631B041B0C838384
:105484000B8A038210BDF0B5838B87B023F47A6353
:1054940023F01F031B041B0C8383022303848B68E8
:1054A400868B022B04460D46B6B223D001A88F8802
:1054B400FFF79EFDEB88002F14BF02270127B3F5E9
:1054C400007F019A4FF00A0301D1120A02E07F0122
:1054D400B2FBF7F25343A9680A22B3FBF1F3053395
:1054E4009BB2B3FBF2F303F0010212025B089BB21E
:1054F40092B200E00022991E89B2FE2928BF002240
:10550400E98828BF022313430B439BB223842B88CF
:105514006A8846EA030343F400631343AA881343E7
:10552400AA8913439BB2A38307B0F0BD0023038071
:1055340043808380C380038143818381C3810723A4
:105544000382704700230222038043808380C38048
:1055540082608381704721B103889BB243F040038A
:1055640004E0038823F040031B041B0C03807047F2
:1055740021B1838B9BB243F4806304E0838B23F4D7
:1055840080631B041B0C83837047090901238B4030
:105594009BB21AB1828892B2134303E0828892B21A
:1055A40022EA0303838070471AB183889BB21943AC
:1055B40003E083889BB223EA0101818070478181E3
:1055C4007047808980B270474FF6FF63994204D0D8
:1055D40003889BB243F4807304E0038823F480734C
:1055E4001B041B0C0380704721B183889BB243F0DA
:1055F400040304E0838823F004031B041B0C83804E
:105604007047038823F400631B041B0C0380038886
:105614009BB241EA03030380704703889BB243F4BF
:1056240080530380704721B103889BB243F4005335
:1056340004E0038823F400531B041B0C038070470D
:10564400012902D0008B80B27047808A80B27047F3
:10565400008A80B27047B1F5804F04D103889BB2B1
:1056640043F4804304E0038823F480431B041B0CAD
:1056740003807047038919420CBF00200120704742
:10568400C94389B201817047012301F00F0213FA63
:1056940002F210B584880089A4B280B2104005D00B
:1056A40009098B401C420CBF0020012010BD01F0F1
:1056B4000F0101238B40DB439BB20381704700BF82
:1056C400032AC9B270B408D82AB10346121803F8E1
:1056D400011B9342FBD170BC70478218044601E061
:1056E40004F8011B14F0030FFAD14FF0013303FB4C
:1056F40001F31FE044F8403C44F83C3C44F8383C97
:1057040044F8343C44F8303C44F82C3C44F8283CFD
:1057140044F8243C44F8203C44F81C3C44F8183C2D
:1057240044F8143C44F8103C44F80C3C44F8083C5D
:1057340044F8043C161B254640343F2EDADC2C4644
:1057440007E044F8103C44F80C3C44F8083C44F8A6
:10575400043C161B254610340F2EF2DC01E045F8FC
:10576400043B541B032CFADC01E005F8011B9542B1
:10577400FBD3B0E7002103E0094B5B5843500431ED
:105784000848094B42189A42F6D3084A02E000231B
:1057940042F8043B064B9A42F9D3FAF7B7FD704737
:1057A4005458000800000020240000202400002099
:1057B40004050020FEE746415400808182838485ED
:1057C400868788898A8B8C8D8E8F909192939495FD
:1057D400969798998A9B8C8D8E8FA0A1A2A3A4A53D
:1057E400A6A7A8A9AAABACADAEAFB0B1B2A3B4B5ED
:1057F400B6B7B8A5AABBBCBDBCAFC0C1C2C3C4C503
:10580400C6C7C8C9CACBCCCDCECFD0D1D2D3D4D5BC
:10581400D6D7D8D9DADBDCDDDEDFC0C1C2C3C4C56C
:10582400C6C7C8C9CACBCCCDCECFD0D1D2D3D4D59C
:10583400D6F7D8D9DADBDCDDDEFF746573742E6D40
:1058440070330020222A2B2C5B3D5D7C7F000000FE
:105854002AF02CD012400000020000002A000000B0
:105864000000000001020304010203040607080902
:04587400020406081C
:04000005080001E40A
:00000001FF
